:100000000EC027C025C024C023C02DC021C020C0E1
:100010001FC01EC01DC01CC01BC01AC019C01124A7
:100020001FBECFEDCDBF10E0A0E6B0E0ECEFF1E0F9
:1000300002C005900D92A236B107D9F720E0A2E6E2
:10004000B0E001C01D92A436B207E1F716D0D4C0CB
:10005000D7CF1F920F920FB60F9211240F900FBEA1
:100060000F901F9018951F920F920FB60F921124A8
:100070000F900FBE0F901F90189580E886BD16BC9C
:1000800097E098BB98E397BB1ABC13BE12BE19BC8D
:1000900018BC17BC10BE1CBC1FBC1EBC1BBC1DBCAE
:1000A00090E49BBF22E025BF9ABF19BE1DB888B956
:1000B00013B814BA16B82FEF80E792E021508040B1
:1000C0009040E1F700C00000E0E0F0E0E12CF12C0E
:1000D000DE2DCF2D0FE010E101C0F701B29B4CC027
:1000E0008091620090916300E817F907B8F7B29B1E
:1000F000F5CFC39902C0C39A01C0C3988091600034
:1001000090916100892BA1F0B29B12C08D2F9C2F82
:10011000AFE8B1E01197F1F700C00000019620911F
:100120006000309161008217930710F4B299F0CF0C
:1001300031968091620090916300E817F90770F69C
:10014000B299D7CFCBCFB2E0BA95F1F700C0B19951
:10015000FACF96B3692F617070E0262B372B220FF0
:10016000331FB19906C0F2E0FA95F1F700C0B19BD8
:10017000FACF815019F405C0802F9701B199E3CFD0
:10018000E8CFB29B36C082E08A95F1F700C0B29901
:10019000FACF2FC0A2E0AA95F1F700C0B199FACF2B
:1001A000F6B34F2F417050E0842B952B880F991F89
:1001B000B19906C0B2E0BA95F1F700C0B19BFACF91
:1001C000E15019F0B199E6CFEBCF220F331F3093F6
:1001D0006300209362009093610080936000B29965
:1001E0007CCFF2E0FA95F1F700C0B29BFACFF701AD
:0C01F00075CFE12FC701E6CFF894FFCFD8
:0201FC002C01D4
:00000001FF
