S00E0000415849535F582E737265632A
S113000031C100004EC100004CC100004AC10000D3
S113001048C1000046C1000044C1000042C10000C4
S113002040C100003EC100003CC100003AC10000D4
S113003038C1000036C100000C94400A32C10000EF
S11300400C94190A2EC100002CC100002AC1000022
S113005028C1000026C1000024C1000022C1000004
S113006020C100001EC100001CC100001AC1000014
S113007018C1000016C100000C943D0F0C94660FCB
S113008010C100000EC100000CC10000555020201A
S1130090202020444F574E20202053454C454354A4
S11300A0002020202020202020202020202020206C
S11300B02020202020002020202050524F46494C50
S11300C045202020203920202020002020202050DE
S11300D0524F46494C452020202038202020200023
S11300E02020202050524F46494C452020202037C4
S11300F020202020002020202050524F46494C45EB
S11301002020202036202020200020202020505293
S11301104F46494C45202020203520202020002017
S113012020202050524F46494C4520202020342086
S1130130202020002020202050524F46494C4520AA
S11301402020203320202020002020202050524F27
S113015046494C4520202020322020202000202009
S1130160202050524F46494C452020202031202049
S11301702020002020574F524B202050524F4649F8
S11301804C452020392020002020574F524B20205E
S113019050524F46494C45202038202000202057FB
S11301A04F524B202050524F46494C452020372077
S11301B020002020574F524B202050524F46494C8C
S11301C0452020362020002020574F524B2020501D
S11301D0524F46494C452020352020002020574FBF
S11301E0524B202050524F46494C45202034202069
S11301F0002020574F524B202050524F46494C4527
S11302002020332020002020574F524B20205052D2
S11302104F46494C452020322020002020574F5281
S11302204B202050524F46494C452020312020007D
S1130230286D6D2900286465672F6D6D2900286D70
S11302406D2F6D29004C454E474C48203D005350BE
S113025045454432200053504545443120002C008C
S11302603C003E0011241FBECFEFD0E1DEBFCDBF66
S113027021E0A8E0B1E001C01D92A831B207E1F786
S113028011E0A0E0B1E0E4E9F0E200E00BBF02C05D
S113029007900D92A830B107D9F70E94780A0C9400
S11302A04810AECECF92DF92EF92FF920F931F933E
S11302B06B017C0120E030E040E05FE44ED387FD39
S11302C00CC020E030E040E05FE4C701B60197D104
S11302D070D38B019C01305805C0C701B60169D3A6
S11302E08B019C01B801C9011F910F91FF90EF9000
S11302F0DF90CF900895A4E0B0E0E1E8F1E00C9441
S113030013107C016A01FC018081823008F44AC127
S1130310FB019081923008F442C1843079F4943026
S113032009F040C1F7019181FB018181981709F41B
S113033039C1A0E0EA2EA1E0FA2E34C1943009F4C8
S11303402EC1923091F4823009F02CC188E0F7017B
S1130350DA0101900D928A95E1F7FB018181F701A1
S113036091818923FA0181831CC1823009F417C168
S1130370F70182819381FB01A281B381F70104819A
S1130380158126813781FB0184809580A680B78002
S1130390FC01EA1BFB0BAF01F7FF04C04427552700
S11303A04E1B5F0B403251050CF074C01E161F0625
S11303B0B4F524013501042E04C07694679457944F
S11303C047940A94D2F749825A826B827C82412CE8
S11303D0512C3201439404C0440C551C661C771CF8
S11303E04A95D2F741E0441A51086108710848203F
S11303F059206A207B20812C912C54018394452818
S11304004628472819F4812C912C540149805A809C
S11304106B807C8084289528A628B72846C0EF2BBB
S113042009F443C0840F951F28013901042E04C028
S113043076946794579447940A94D2F749825A82DF
S11304406B827C82412C512C3201439404C0440CB5
S1130450551C661C771C4A95D2F741E0441A510892
S113046061087108402251226222732201E010E0E7
S113047020E030E045284628472819F400E010E041
S1130480980149805A806B807C800429152926298B
S113049037290BC0A817B90724F4812C912C5401D7
S11304A004C0CD0100E010E09801F7014181FB0197
S11304B05181451709F446C0442349F0240135010C
S11304C0401A510A620A730A9301820104C008198E
S11304D019092A093B0937FD05C0F60111829383E6
S11304E082830CC041E0F60141839383828330957B
S11304F02095109501951F4F2F4F3F4F048315836F
S1130500268337830EC0880F991FAA1FBB1FF601CD
S113051084839583A683B783828193810197938390
S11305208283F60184819581A681B781AC01BD01E6
S113053041505109610971094F3F5F4F6F4F7F432C
S113054010F30CC0F601418393838283080D191DB7
S11305502A1D3B1D048315832683378383E0F6011C
S11305608083448155816681778177FF1AC0DB01DE
S1130570CA0181709927AA27BB2776956795579555
S11305804795842B952BA62BB72B84839583A68321
S1130590B7838281938101969383828302C07B0116
S11305A001C07601C7012496E0E10C942F10A0E26B
S11305B0B0E0EDEDF2E00C9421106D8F7E8F8F8F03
S11305C098A3298F3A8F4B8F5C8FBE016F5E7F4F4C
S11305D0CE014D967BD3BE01675F7F4FCE01499616
S11305E075D3AE014F5F5F4FBE01675F7F4FCE0192
S11305F0419681DEA1D2A096E2E00C943D10A0E2E7
S1130600B0E0E5E0F3E00C9421106D8F7E8F8F8FC6
S113061098A3298F3A8F4B8F5C8FBE016F5E7F4FFB
S1130620CE014D9653D3BE01675F7F4FCE014996ED
S11306304DD38A8591E089278A87AE014F5F5F4F4A
S1130640BE01675F7F4FCE01419655DE75D2A096FD
S1130650E2E00C943D10A0E2B0E0E1E3F3E00C949E
S113066013106D8F7E8F8F8F98A3298F3A8F4B8FA6
S11306705C8FBE016F5E7F4FCE014D9627D3BE01C6
S1130680675F7F4FCE01499621D39989923008F450
S113069012C08985823008F41AC0943021F4823063
S11306A009F4B4C008C0843021F4923009F4AEC017
S11306B00EC0923051F481E02A899A85291301C031
S11306C080E08A8BCE014196A3C0823051F481E050
S11306D02A899A85291301C080E08A87CE01099668
S11306E097C08D889E88AF88B88C0D851E852F8510
S11306F03889E0E2F0E080E090E0DC01C12CD12C0C
S1130700760140E050E0BA0180FE18C0400F511F4E
S1130710621F731F8C0D9D1DAE1DBF1D412C512CDE
S113072032014394401751076207730718F0412CB4
S1130730512C3201840D951DA61DB71DCC0CDD1C5A
S1130740EE1CFF1C37FF02C06894C0F8000F111F95
S1130750221F331FB694A794979487943197A1F6D8
S11307602B893C89EB85FC852E0F3F1F2E5F3F4F65
S11307703C832B8321E0EA893A85E31301C020E01E
S11307802A83EB81FC810CC080FF05C076956795B8
S1130790579547957068B695A7959795879531961F
S11307A0B7FDF2CF9F010CC0880F991FAA1FBB1F72
S11307B077FD8160440F551F661F771F2150310953
S11307C00097A105E0E4BE0778F32B833C838C01FA
S11307D09D010F77112722273327003411052105A6
S11307E0310559F487FD09C0452B462B472B29F0C9
S11307F0805C9F4FAF4FBF4F80788D839E83AF83C4
S1130800B88783E08983CE01019602C080E091E03D
S113081093D1A096E0E10C942F10A8E1B0E0E3E1BD
S1130820F4E00C941B106D8B7E8B8F8B988F298B2F
S11308303A8B4B8B5C8BBE01675F7F4FCE01459635
S113084045D2BE016F5F7F4FCE0141963FD299855D
S1130850923008F475C08981823008F474C02A8506
S11308603A8123272A87943011F0923019F498138F
S113087067C06CC0843039F41D861E861F86188AB2
S11308801C861B8604C0823029F484E08987CE014B
S113089009965EC08B859C852B813C81821B930BC2
S11308A09C878B874D855E856F857889CD80DE80BA
S11308B0EF80F8844C155D056E057F0538F4440F10
S11308C0551F661F771F01979C878B87EFE1F0E028
S11308D000E010E020E030E480E090E0DC014C1522
S11308E05D056E057F0540F0802B912BA22BB32B69
S11308F04C195D096E097F0936952795179507955B
S1130900440F551F661F771F319749F78C019D01CE
S11309100F771127222733270034110521053105CC
S113092059F487FD09C0452B462B472B29F0805CE1
S11309309F4FAF4FBF4F80788D879E87AF87B88B0F
S1130940CE01099605C0CE01019602C080E091E077
S1130950F3D06896E8E00C943710A8E1B0E0E3EB3C
S1130960F4E00C9421106D8B7E8B8F8B988F298BE8
S11309703A8B4B8B5C8BBE01675F7F4FCE014596F4
S1130980A5D1BE016F5F7F4FCE0141969FD189856E
S1130990823050F08981823038F0BE016F5F7F4F22
S11309A0CE01099602D201C08FEF6896E2E00C9462
S11309B03D10ACE0B0E0EFEDF4E00C941F1069875B
S11309C07A878B879C87BE016F5F7F4FCE01099624
S11309D07DD18981823091F1823080F1843041F47B
S11309E08A81882331F100E010E020E030E829C05A
S11309F02B813C8137FD22C02F3131058CF78EE1EC
S1130A0090E0821B930B0D811E812F81388504C0D9
S1130A1036952795179507958A95D2F78A81882365
S1130A2081F030952095109501951F4F2F4F3F4F22
S1130A3008C00FEF1FEF2FEF3FE703C000E010E007
S1130A409801B801C9012C96E4E00C943B10A8E08D
S1130A50B0E0EDE2F5E00C941B108B019C011A82CE
S1130A60611571058105910519F482E089835DC0E2
S1130A7083E089834EE150E05C834B83C901B80174
S1130A800E94F80F019797FF39C0EE27FF27E81B54
S1130A90F90B41E050E060E070E00E2E04C0440F1A
S1130AA0551F661F771F0A94D2F7415051096109F7
S1130AB071094023512362237323C12CD12C760165
S1130AC0C394452B462B472B19F4C12CD12C76010A
S1130AD004C03695279517950795EA95D2F70C2902
S1130AE01D292E293F290D831E832F8338872EE14C
S1130AF030E0281B390B3C832B8317C0009729F463
S1130B000D831E832F83388710C0082E04C0000F66
S1130B10111F221F331F0A94D2F70D831E832F83C4
S1130B203887481B590B5C834B83CE01019604D054
S1130B302896E8E00C9437100F931F93CF93DF931C
S1130B40DC0114964D915D916D917C9117971196EE
S1130B50EC9111978C91823020F460618FEF90E0DA
S1130B60A6C0843009F49EC0823009F495C04115B2
S1130B7051056105710509F492C012962D913C91BD
S1130B80139722388FEF38070CF058C0C2E8DFEF14
S1130B90C21BD30BCA31D1056CF58A019B010C2E03
S1130BA004C036952795179507950A94D2F781E0E6
S1130BB090E0A0E0B0E00C2E04C0880F991FAA1F9B
S1130BC0BB1F0A94D2F70197A109B1098423952385
S1130BD0A623B72341E050E060E070E0892B8A2B24
S1130BE08B2B19F440E050E0BA01402B512B622BBF
S1130BF0732B03C040E050E0BA01DB01CA018F77D8
S1130C009927AA27BB2780349105A105B10539F49A
S1130C1047FF09C0405C5F4F6F4F7F4F04C0415C8A
S1130C205F4F6F4F7F4F81E090E0411551056105A3
S1130C3020E4720748F580E090E026C020383105B2
S1130C408CF5DB01CA018F779927AA27BB2780344B
S1130C509105A105B10539F447FF09C0405C5F4F18
S1130C606F4F7F4F04C0415C5F4F6F4F7F4F77FDE5
S1130C7004C0C90181589F4F07C076956795579561
S1130C804795C90180589F4F97E07695679557958A
S1130C9047959A95D1F70BC080E090E005C080E0BD
S1130CA090E005C08FEF90E040E050E0BA01982F4B
S1130CB09695E0FB97F9362F80FB37F9642F752F53
S1130CC0832FDF91CF911F910F910895CF92DF92DF
S1130CD0EF92DC01FB01CC901196DC9011971296F7
S1130CE08C9112973FE7E32EE8226E2DA60170E067
S1130CF0982F991F9927991F13962C91822F880F4B
S1130D00892B90E027FB222720F92183009729F5DE
S1130D10411551056105710511F482E027C082E88F
S1130D209FEF9383828327E0440F551F661F771F2D
S1130D302A95D1F783E0808309C0440F551F661FAD
S1130D40771F828193810197938382834115510593
S1130D50610580E4780788F320C08F3F910579F41A
S1130D60411551056105710519F484E0808319C0AA
S1130D70E4FE03C081E0808310C010820EC08F5750
S1130D8091099383828383E0808387E0440F551F16
S1130D90661F771F8A95D1F77064448355836683F1
S1130DA07783EF90DF90CF900895CF93FC01DB0120
S1130DB09081923008F452C08C91823008F44EC075
S1130DC0943071F4843039F411962C9130E081819F
S1130DD0281B310948C08181882309F43FC03BC0E6
S1130DE0843029F411968C91811138C034C092302A
S1130DF019F48230B9F735C0823069F3C181119694
S1130E008C911197C8131DC02281338112968D9144
S1130E109C911397821793070CF413C02817390772
S1130E200CF417C0448155816681778114968D91A5
S1130E309D910D90BC91A02D84179507A607B70727
S1130E4018F4C11108C00AC0481759076A077B077C
S1130E5040F4C11103C02FEF3FEF05C021E030E0A3
S1130E6002C020E030E0C901CF910895611102C0B1
S1130E70DD9801C0DD9A882334F4E5E6F0E0908142
S1130E809460908305C0E5E6F0E090819B7F9083B9
S1130E9086FF02C0AF9A01C0AF9885FF02C0DE9AF8
S1130EA001C0DE9884FF02C0DF9A01C0DF98E7EC3E
S1130EB0F0E03197F1F700C00000DC9AE7ECF0E0D5
S1130EC03197F1F700C00000DC98E7ECF0E03197CF
S1130ED0F1F700C0000083FF06C0E5E6F0E0908172
S1130EE09460908305C0E5E6F0E090819B7F908359
S1130EF082FF02C0AF9A01C0AF9881FF02C0DE9AA0
S1130F0001C0DE9880FF02C0DF9A01C0DF9887EC41
S1130F1090E00197F1F700C00000DC9AE7ECF0E004
S1130F203197F1F700C00000DC9887EC90E001975E
S1130F30F1F700C0000008958FE39CE90197F1F7F1
S1130F4000C000008AB3806F8ABBDF98A79AAF986D
S1130F50E4E6F0E0808184608083E5E6F0E080816F
S1130F608B7F80838FE39CE90197F1F700C0000039
S1130F70DF9ADE9A8FE19EE40197F1F700C000004A
S1130F80DF988FE39FE10197F1F700C00000DC9A3E
S1130F908FE39FE10197F1F700C00000DC988FE335
S1130FA09FE10197F1F700C0000060E088E25EDF96
S1130FB060E08CE05BDF60E086E058DF60E081E0C9
S1130FC055DF9FEF29EF80E0915020408040E1F70A
S1130FD000C00000089561E049CF823061F018F448
S1130FE0813089F405C0833049F0843061F409C04C
S1130FF0862F815808C0862F815405C0862F8D56B0
S113100002C0862F8D5260E031CFCF93DF93EC0185
S1131010FE012491222351F0FC01849161E026DF3A
S11310202196CE01FE0124912111F6CFDF91CF91BB
S113103008958530D9F058F4823091F018F4813055
S113104069F41EC0833071F0843041F40DC08730E0
S113105089F070F0883081F0893081F080E3089560
S113106082E3089583E3089584E3089585E308956E
S113107086E3089587E3089588E3089589E308954E
S113108081E308958F929F92AF92BF92CF92DF92A5
S1131090EF92FF92CF930F2EFAE0CF2ED12CE12CBA
S11310A0F12CF02DA701960175D749015A01862F1D
S11310B0C0DFC82FC501B401A70196016BD7862FE5
S11310C0B8DF89DF8C2F87DFCF91FF90EF90DF901F
S11310D0CF90BF90AF909F908F9008956F927F9222
S11310E08F929F92AF92BF92CF92DF92EF92FF9234
S11310F00F931F93CF93DF9300D000D0CDB7DEB70B
S113110019821A821B821C828E010E5F1F4F5E01A0
S113111025E0A20EB11C0F2EFAE0CF2ED12CE12C2B
S1131120F12CF02DA701960135D7622E732E842E53
S1131130952E862F7EDFF80181938F01662D772D02
S1131140882D992DEA15FB0569F78C8144DF8B8185
S113115042DF8A8140DF0F900F900F900F90DF9154
S1131160CF911F910F91FF90EF90DF90CF90BF90A0
S1131170AF909F908F907F906F90089510BE84E001
S113118083BF12BE11BE1FBC8EBD8BE08DBD8CED26
S11311908CBD17BC16BC1BBC1ABC19BC18BC109265
S11311A079001092780015BC14BC13BC10928B000B
S11311B010928A0010928900109288001092810087
S11311C01092800010928700109286001092850081
S11311D010928400109283001092820010926A0090
S11311E01ABE19BE85E087BF10927D001AB810920E
S11311F09A0080E888B910BC80EC87B986E886B983
S11312001DB8109274008FE39CE90197F1F700C0B8
S11312100000089584B3807C84BB85B38F6385BB51
S1131220D198D99A0895989B1EC0999B1EC09A9BE9
S11312301EC09B9B1EC09C9B1EC09D9B1EC0C99B29
S11312401EC00EC082ED80930A0190930B01089595
S11312508F5F80930A018431C1F490930B01089548
S113126010920A01089591E00BC092E009C093E046
S113127007C094E005C095E003C096E001C097E084
S113128080910A018B3F20F3DDCF089580910B01FB
S113129010920B01089580930B01089582B3836F1C
S11312A082BB81B3836F81BB8FE39CE90197F1F724
S11312B000C00000E2E6F0E080818E608083A1E659
S11312C0B0E08C918E608C938FE39CE90197F1F7E9
S11312D000C000008081846080838FE39CE90197D3
S11312E0F1F700C000008081886080839198909815
S11312F00895E2E6F0E0208122602083EFE3FFE13D
S11313003197F1F700C000009498F5E3FA95F1F7EE
S113131000002FE030E0AC01022E02C05695479544
S11313200A94E2F740FF02C0979A01C09798E7EC4D
S1131330F0E03197F1F700C000009698E7ECF0E098
S11313403197F1F700C00000969A2150310918F73F
S113135025E32A95F1F70000949A45E34A95F1F7BD
S113136000008AE68A95F1F700C09598E5E3EA95CE
S1131370F1F700008FE090E09B01082E02C0369543
S113138027950A94E2F720FF02C0979A01C0979824
S1131390E7ECF0E03197F1F700C000009698E7EC35
S11313A0F0E03197F1F700C00000969A019720F71A
S11313B025E32A95F1F70000959A45E34A95F1F75C
S11313C00000E2E6F0E080818D7F80838BE08DBDBC
S11313D08CED8CBD0895E2E6F0E08081826080832C
S11313E00895E5E6F0E020812061208382309105B4
S11313F050F0EFE9FFE03197F1F700C000000197EA
S113140081309105B1F7E5E6F0E080818F7E80833D
S11314100895882319F0803141F404C0D898D998EC
S1131420DA980895D89AD99ADA9A089588E081BD0D
S1131430FFCF1F920F920FB60F9211240BB60F928B
S11314402F933F934F935F936F937F938F939F93C8
S1131450AF93BF93EF93FF93E6DEFF91EF91BF91BC
S1131460AF919F918F917F916F915F914F913F9138
S11314702F910F900BBE0F900FBE0F901F901895D9
S11314801F920F920FB60F9211240BB60F922F9347
S11314903F934F935F936F937F938F939F93AF93F8
S11314A0BF93EF93FF938BE08DBD8CED8CBD80914A
S11314B00801909109018230910530F001979093D1
S11314C009018093080101C086DFFF91EF91BF916C
S11314D0AF919F918F917F916F915F914F913F91C8
S11314E02F910F900BBE0F900FBE0F901F90189569
S11314F045DE90DEA4E6B0E08C9180618C93E5E655
S1131500F0E080818F7E80838C9181608C938081D8
S11315108E7F80838C9182608C9380818D7F808389
S11315208C9184608C9380818B7F8083B7DE80E193
S113153070DF02DD26D5789408E010E024E030E086
S113154041E050E061E080E04ED18AEA05D58FEFBA
S113155003D580E05EDF68E070E084E090E0C9DEFF
S113156081E090E090930901809308016894EE244F
S1131570E3F8F12C6894662462F8712CCC24C394AB
S1131580D12CD1E0C0E00F2EF7EE8F2EF3E09F2E8A
S1131590F02DA12CB12C0F2EF9EF5F2EF02D0F2E74
S11315A0F9E04F2EF02DBFD4882321F0C3D4853524
S11315B009F43CDF6BDEC130B1F120F0C23009F038
S11315C0E5C0D8C08230B1F0833029F1813009F010
S11315D0DDC0DF5F85E090E004DFDA3020F082E3F5
S11315E090E0FFDED42D87019301A6016D2F80E0EA
S11315F0FAD0CCC0D15085E090E0F3DEDA3020F0B0
S113160082E390E0EEDED1E087019301A6016D2F25
S113161080E0E9D0BBC087019301A6016D2F81E072
S1131620E2D0C1E0B3C0843009F44CC038F4823055
S113163039F168F4813009F0A9C00CC0863009F48E
S11316406DC008F455C0873009F0A0C07DC09A9BD6
S1131650C2C0A6C02FEF621A720A85E090E0C1DE14
S113166088EE681683E0780620F082E390E0B9DE25
S1131670340187019301A6016D2F81E0B4D086C0A7
S113168091E0691A710885E090E0ABDEE8EE6E1631
S1131690E3E07E0620F082E390E0A3DE35018701DB
S11316A09301A6016D2F81E09ED070C0EFE7FEE3A9
S11316B03197F1F700C00000815009F47CC09A9B77
S11316C0F5CF6EC0FFEFEF1AFF0A85E090E089DEE8
S11316D028EEE21623E0F20620F082E390E081DEB9
S11316E0740187019301A6016D2F81E07CD04EC067
S11316F081E0E81AF10885E090E073DE98EEE916DF
S113170093E0F90620F082E390E06BDE7501870137
S11317109301A6016D2F81E066D038C0EFEFCE1A99
S1131720DE0A85E090E05DDEF8EECF16F3E0DF063A
S113173020F082E390E055DE640187019301A60165
S11317406D2F81E050D022C021E0C21AD10885E07B
S113175090E047DE88EEC81683E0D80620F082E3E6
S113176090E03FDE650187019301A6016D2F81E0C2
S11317703AD00CC0833051F485E090E032DE87012A
S11317809301A6016D2F81E02ED0C1E09FEFE0E729
S1131790F2E09150E040F040E1F700C0000003CFD8
S11317A085E090E01EDE87019301A6016D2F80E0A5
S11317B01AD0C0E0EBCF82E390E013DE87019301FF
S11317C0A6016D2F82E00FD080E065DDB701C30173
S11317D090DDC2E0DBCF8FE79EE30197F1F700C015
S11317E00000852D6CCFBF92CF92DF92EF92FF92D3
S11317F00F931F93CF93DF93EA017901813009F4AA
S113180071C120F0823009F02EC39CC2653009F406
S1131810B0C078F4623009F43DC020F4613009F0BE
S113182022C313C0633009F45AC0643009F01BC3E7
S11318307BC0673009F4E7C008F4C0C0683009F41D
S113184007C1693009F00FC328C161E081E0C5DB3D
S11318508EE591E0DADB61E082E0BFDB89E491E0D0
S1131860D4DB61E083E0B9DB84E391E0CEDB61E0CB
S113187081E0B3DB82E692E0C8DB64E181E0ADDBCA
S113188080E692E0C2DB61E084E0A7DB8CE890E0D4
S1131890BCDBE9C261E081E0A0DB89E491E0B5DB77
S11318A061E082E09ADB84E391E0AFDB61E083E016
S11318B094DB8FE191E0A9DB61E081E08EDB82E6DD
S11318C092E0A3DB64E181E088DB80E692E09DDBCB
S11318D061E084E082DB8CE890E097DBC4C261E0E5
S11318E081E07BDB84E391E090DB61E082E075DB07
S11318F08FE191E08ADB61E083E06FDB8AE091E0D5
S113190084DB61E081E069DB82E692E07EDB64E116
S113191081E063DB80E692E078DB61E084E05DDB1C
S11319208CE890E072DB9FC261E081E056DB8FE1DE
S113193091E06BDB61E082E050DB8AE091E065DB03
S113194061E083E04ADB85EF90E05FDB61E081E00A
S113195044DB82E692E059DB64E181E03EDB80E631
S113196092E053DB61E084E038DB8CE890E04DDB0F
S11319707AC261E081E031DB8AE091E046DB61E03C
S113198082E02BDB85EF90E040DB61E083E025DB48
S113199080EE90E03ADB61E081E01FDB82E692E0DA
S11319A034DB64E181E019DB80E692E02EDB61E068
S11319B084E013DB8CE890E028DB55C261E081E031
S11319C00CDB85EF90E021DB61E082E006DB80EE5A
S11319D090E01BDB61E083E000DB8BEC90E015DB47
S11319E061E081E0FADA82E692E00FDB64E181E013
S11319F0F4DA80E692E009DB61E084E0EEDA8CE878
S1131A0090E003DB30C261E081E0E7DA80EE90E051
S1131A10FCDA61E082E0E1DA8BEC90E0F6DA61E096
S1131A2083E0DBDA86EB90E0F0DA61E081E0D5DA9E
S1131A3082E692E0EADA64E181E0CFDA80E692E0DD
S1131A40E4DA61E084E0C9DA8CE890E0DEDA0BC223
S1131A5061E081E0C2DA80EE90E0D7DA61E082E012
S1131A60BCDA8BEC90E0D1DA61E083E0B6DA86EBA5
S1131A7090E0CBDA61E082E0B0DA82E692E0C5DAA7
S1131A8064E182E0AADA80E692E0BFDA61E084E011
S1131A90A4DA8CE890E0B9DAE6C161E081E09DDA8D
S1131AA080EE90E0B2DA61E082E097DA8BEC90E0CD
S1131AB0ACDA61E083E091DA86EB90E0A6DA61E0EB
S1131AC083E08BDA82E692E0A0DA64E183E085DAEF
S1131AD080E692E09ADA61E084E07FDA8CE890E0D4
S1131AE094DAC1C16530A1F168F46230E1F020F408
S1131AF0613009F04FC010C06330E1F0643009F088
S1131B0049C01FC0673091F150F1683009F435C005
S1131B10693009F03FC038C061E081E05EDA8EE5EB
S1131B2091E073DA37C061E081E057DA89E491E04B
S1131B306CDA30C061E081E050DA84E391E065DA88
S1131B4029C061E081E049DA8FE191E05EDA22C0E8
S1131B5061E081E042DA8AE091E057DA1BC061E09B
S1131B6081E03BDA85EF90E050DA14C061E081E077
S1131B7034DA80EE90E049DA0DC061E081E02DDADC
S1131B808BEC90E042DA06C061E081E026DA86EB75
S1131B9090E03BDA61E084E020DA81EA90E035DA33
S1131BA061E081E01ADA82E692E02FDA64E181E012
S1131BB014DA80E692E029DA61E082E00EDA86E562
S1131BC092E023DAB70180E090E00E94270520E04C
S1131BD030E040E250E40E942B03B62EC72ED82EEC
S1131BE0E92E20E030E048EC52E40E940D040E940B
S1131BF0520148DA8EE592E008DA6B2D7C2D8D2DAA
S1131C009E2D0E9452019B01369527953695279566
S1131C10ABE7B4E1E1D1969587950F2EF4E6FF2E5C
S1131C20F02DF89EB001F99E700D112480E090E033
S1131C300E9427059B01AC016B2D7C2D8D2D9E2DC3
S1131C400E94FF0220E030E040E251E40E942B03B6
S1131C500E94520143DA8EE392E0D7D961E083E037
S1131C60BCD98EE492E0D1D99801220F331F220F00
S1131C70331F220F331F200F311FADECBCECACD14E
S1131C8096958795929582958F7089279F7089275D
S1131C90BC0180E090E00E9427050E9452011EDAF8
S1131CA085E392E0B2D961E084E097D985E492E0DB
S1131CB0ACD9BE0180E090E00E94270520E030E02E
S1131CC040E250E40E942B03062F172FD82FC92F70
S1131CD020E030E048EC52E40E940D040E945201DE
S1131CE0D1D98EE592E091D9602F712F8D2F9C2F41
S1131CF00E9452019B013695279536952795ABE7AF
S1131D00B4E16AD196958795F89EB001F99E700D5D
S1131D10112480E090E00E9427059B01AC01602F14
S1131D20712F8D2F9C2F0E94FF0220E030E040E2B3
S1131D3051E40E942B030E945201A4D980E392E053
S1131D4064D991C06530A1F168F46230E1F020F407
S1131D50613009F04FC010C06330E1F0643009F025
S1131D6049C01FC0673091F150F1683009F435C0A3
S1131D70693009F03FC038C061E081E02ED98BE1C1
S1131D8092E043D937C061E081E027D986E092E050
S1131D903CD930C061E081E020D981EF91E035D9B0
S1131DA029C061E081E019D98CED91E02ED922C0DF
S1131DB061E081E012D987EC91E027D91BC061E092
S1131DC081E00BD982EB91E020D914C061E081E07D
S1131DD004D98DE991E019D90DC061E081E0FDD805
S1131DE088E891E012D906C061E081E0F6D883E783
S1131DF091E00BD961E084E0F0D881EA90E005D964
S1131E0061E081E0EAD882E692E0FFD864E181E013
S1131E10E4D880E692E0F9D861E082E0DED886E595
S1131E2092E0F3D8B70180E090E058D98EE392E0D5
S1131E30ECD861E083E0D1D88EE492E0E6D8B80132
S1131E4080E090E04BD985E392E0DFD861E084E064
S1131E50C4D885E492E0D9D8BE0180E090E03ED9B0
S1131E6080E392E0D2D8DF91CF911F910F91FF9040
S1131E70EF90DF90CF90BF9008951F920F920FB60E
S1131E800F9211240BB60F922F938F939F93EF937E
S1131E90FF93E09116018E2F8F5F837020919C0039
S1131EA090911701891731F0F0E0EF5EFE4F208327
S1131EB080931601FF91EF919F918F912F910F9035
S1131EC00BBE0F900FBE0F901F9018951F920F928C
S1131ED00FB60F9211240BB60F928F939F93EF932B
S1131EE0FF9380910C0190911501891761F0E82FFF
S1131EF0F0E0E35FFE4F908190939C008F5F8370CE
S1131F0080930C0105C0EAE9F0E080818F7D808335
S1131F10FF91EF919F918F910F900BBE0F900FBE89
S1131F200F901F9018958091160190911701891BAD
S1131F30837008959091170180911601981751F0BC
S1131F40E92FF0E0EF5EFE4F80819F5F93709093E6
S1131F501701089580E00895E09115019E2F9F5F79
S1131F60937020910C01921759F0F0E0E35FFE4F5B
S1131F70808390931501EAE9F0E080818062808398
S1131F80089587E6809399001092980088E98093D9
S1131F909A000895A1E21A2EAA1BBB1BFD010DC0D5
S1131FA0AA1FBB1FEE1FFF1FA217B307E407F50705
S1131FB020F0A21BB30BE40BF50B661F771F881FE1
S1131FC0991F1A9469F760957095809590959B0177
S1131FD0AC01BD01CF010895A29FB001B39FC00120
S1131FE0A39F01D0B29F700D811D1124911D0895EE
S1131FF006D084FF0895CB0102D0805F0895AA27FC
S1132000992329F4A85F982B11F480E10895903165
S113201018F4AD5F9295A395990FE8F78A2F992745
S113202008952F923F924F925F926F927F928F9278
S11320309F92AF92BF92CF92DF92EF92FF920F9353
S11320401F93CF93DF93CDB7DEB7CA1BDB0B0FB65D
S1132050F894DEBF0FBECDBF09942A88398848881A
S11320605F846E847D848C849B84AA84B984C884B0
S1132070DF80EE80FD800C811B81AA81B981CE0FA7
S1132080D11D0FB6F894DEBF0FBECDBFED0108958C
S1072090F894FFCFEE
S10B2094000000000000000040
S9030000FC
