S00E0000415849535F582E737265632A
S113000031C100004EC100004CC100004AC10000D3
S113001048C1000046C1000044C1000042C10000C4
S113002040C100003EC100003CC100003AC10000D4
S113003038C1000036C100000C94190A32C1000016
S11300400C94F2092EC100002CC100002AC100004A
S113005028C1000026C1000024C1000022C1000004
S113006020C100001EC100001CC100001AC1000014
S113007018C1000016C100000C94140F0C943D0F1D
S113008010C100000EC100000CC10000555020201A
S1130090202020444F574E20202053454C454354A4
S11300A0002020202020202020202020202020206C
S11300B02020202020002020202050524F46494C50
S11300C045202020203920202020002020202050DE
S11300D0524F46494C452020202038202020200023
S11300E02020202050524F46494C452020202037C4
S11300F020202020002020202050524F46494C45EB
S11301002020202036202020200020202020505293
S11301104F46494C45202020203520202020002017
S113012020202050524F46494C4520202020342086
S1130130202020002020202050524F46494C4520AA
S11301402020203320202020002020202050524F27
S113015046494C4520202020322020202000202009
S1130160202050524F46494C452020202031202049
S11301702020002020574F524B202050524F4649F8
S11301804C452020392020002020574F524B20205E
S113019050524F46494C45202038202000202057FB
S11301A04F524B202050524F46494C452020372077
S11301B020002020574F524B202050524F46494C8C
S11301C0452020362020002020574F524B2020501D
S11301D0524F46494C452020352020002020574FBF
S11301E0524B202050524F46494C45202034202069
S11301F0002020574F524B202050524F46494C4527
S11302002020332020002020574F524B20205052D2
S11302104F46494C452020322020002020574F5281
S11302204B202050524F46494C452020312020007D
S1130230286D6D2900286465672F6D6D2900286D70
S11302406D2F6D29004C454E474C48203D005350BE
S113025045454432200053504545443120002C008C
S11302603C003E0011241FBECFEFD0E1DEBFCDBF66
S113027021E0A8E0B1E001C01D92A831B207E1F786
S113028011E0A0E0B1E0E2E4F0E200E00BBF02C064
S113029007900D92A830B107D9F70E94510A0C9427
S11302A01F10AECECF92DF92EF92FF920F931F9367
S11302B06B017C0120E030E040E05FE44ED387FD39
S11302C00CC020E030E040E05FE4C701B60197D104
S11302D070D38B019C01305805C0C701B60169D3A6
S11302E08B019C01B801C9011F910F91FF90EF9000
S11302F0DF90CF900895A4E0B0E0E1E8F1E00C9441
S1130300EA0F7C016A01FC018081823008F44AC151
S1130310FB019081923008F442C1843079F4943026
S113032009F040C1F7019181FB018181981709F41B
S113033039C1A0E0EA2EA1E0FA2E34C1943009F4C8
S11303402EC1923091F4823009F02CC188E0F7017B
S1130350DA0101900D928A95E1F7FB018181F701A1
S113036091818923FA0181831CC1823009F417C168
S1130370F70182819381FB01A281B381F70104819A
S1130380158126813781FB0184809580A680B78002
S1130390FC01EA1BFB0BAF01F7FF04C04427552700
S11303A04E1B5F0B403251050CF074C01E161F0625
S11303B0B4F524013501042E04C07694679457944F
S11303C047940A94D2F749825A826B827C82412CE8
S11303D0512C3201439404C0440C551C661C771CF8
S11303E04A95D2F741E0441A51086108710848203F
S11303F059206A207B20812C912C54018394452818
S11304004628472819F4812C912C540149805A809C
S11304106B807C8084289528A628B72846C0EF2BBB
S113042009F443C0840F951F28013901042E04C028
S113043076946794579447940A94D2F749825A82DF
S11304406B827C82412C512C3201439404C0440CB5
S1130450551C661C771C4A95D2F741E0441A510892
S113046061087108402251226222732201E010E0E7
S113047020E030E045284628472819F400E010E041
S1130480980149805A806B807C800429152926298B
S113049037290BC0A817B90724F4812C912C5401D7
S11304A004C0CD0100E010E09801F7014181FB0197
S11304B05181451709F446C0442349F0240135010C
S11304C0401A510A620A730A9301820104C008198E
S11304D019092A093B0937FD05C0F60111829383E6
S11304E082830CC041E0F60141839383828330957B
S11304F02095109501951F4F2F4F3F4F048315836F
S1130500268337830EC0880F991FAA1FBB1FF601CD
S113051084839583A683B783828193810197938390
S11305208283F60184819581A681B781AC01BD01E6
S113053041505109610971094F3F5F4F6F4F7F432C
S113054010F30CC0F601418393838283080D191DB7
S11305502A1D3B1D048315832683378383E0F6011C
S11305608083448155816681778177FF1AC0DB01DE
S1130570CA0181709927AA27BB2776956795579555
S11305804795842B952BA62BB72B84839583A68321
S1130590B7838281938101969383828302C07B0116
S11305A001C07601C7012496E0E10C940610A0E294
S11305B0B0E0EDEDF2E00C94F80F6D8F7E8F8F8F2D
S11305C098A3298F3A8F4B8F5C8FBE016F5E7F4F4C
S11305D0CE014D967BD3BE01675F7F4FCE01499616
S11305E075D3AE014F5F5F4FBE01675F7F4FCE0192
S11305F0419681DEA1D2A096E2E00C941410A0E210
S1130600B0E0E5E0F3E00C94F80F6D8F7E8F8F8FF0
S113061098A3298F3A8F4B8F5C8FBE016F5E7F4FFB
S1130620CE014D9653D3BE01675F7F4FCE014996ED
S11306304DD38A8591E089278A87AE014F5F5F4F4A
S1130640BE01675F7F4FCE01419655DE75D2A096FD
S1130650E2E00C941410A0E2B0E0E1E3F3E00C94C7
S1130660EA0F6D8F7E8F8F8F98A3298F3A8F4B8FD0
S11306705C8FBE016F5E7F4FCE014D9627D3BE01C6
S1130680675F7F4FCE01499621D39989923008F450
S113069012C08985823008F41AC0943021F4823063
S11306A009F4B4C008C0843021F4923009F4AEC017
S11306B00EC0923051F481E02A899A85291301C031
S11306C080E08A8BCE014196A3C0823051F481E050
S11306D02A899A85291301C080E08A87CE01099668
S11306E097C08D889E88AF88B88C0D851E852F8510
S11306F03889E0E2F0E080E090E0DC01C12CD12C0C
S1130700760140E050E0BA0180FE18C0400F511F4E
S1130710621F731F8C0D9D1DAE1DBF1D412C512CDE
S113072032014394401751076207730718F0412CB4
S1130730512C3201840D951DA61DB71DCC0CDD1C5A
S1130740EE1CFF1C37FF02C06894C0F8000F111F95
S1130750221F331FB694A794979487943197A1F6D8
S11307602B893C89EB85FC852E0F3F1F2E5F3F4F65
S11307703C832B8321E0EA893A85E31301C020E01E
S11307802A83EB81FC810CC080FF05C076956795B8
S1130790579547957068B695A7959795879531961F
S11307A0B7FDF2CF9F010CC0880F991FAA1FBB1F72
S11307B077FD8160440F551F661F771F2150310953
S11307C00097A105E0E4BE0778F32B833C838C01FA
S11307D09D010F77112722273327003411052105A6
S11307E0310559F487FD09C0452B462B472B29F0C9
S11307F0805C9F4FAF4FBF4F80788D839E83AF83C4
S1130800B88783E08983CE01019602C080E091E03D
S113081093D1A096E0E10C940610A8E1B0E0E3E1E6
S1130820F4E00C94F20F6D8B7E8B8F8B988F298B59
S11308303A8B4B8B5C8BBE01675F7F4FCE01459635
S113084045D2BE016F5F7F4FCE0141963FD299855D
S1130850923008F475C08981823008F474C02A8506
S11308603A8123272A87943011F0923019F498138F
S113087067C06CC0843039F41D861E861F86188AB2
S11308801C861B8604C0823029F484E08987CE014B
S113089009965EC08B859C852B813C81821B930BC2
S11308A09C878B874D855E856F857889CD80DE80BA
S11308B0EF80F8844C155D056E057F0538F4440F10
S11308C0551F661F771F01979C878B87EFE1F0E028
S11308D000E010E020E030E480E090E0DC014C1522
S11308E05D056E057F0540F0802B912BA22BB32B69
S11308F04C195D096E097F0936952795179507955B
S1130900440F551F661F771F319749F78C019D01CE
S11309100F771127222733270034110521053105CC
S113092059F487FD09C0452B462B472B29F0805CE1
S11309309F4FAF4FBF4F80788D879E87AF87B88B0F
S1130940CE01099605C0CE01019602C080E091E077
S1130950F3D06896E8E00C940E10A8E1B0E0E3EB65
S1130960F4E00C94F80F6D8B7E8B8F8B988F298B12
S11309703A8B4B8B5C8BBE01675F7F4FCE014596F4
S1130980A5D1BE016F5F7F4FCE0141969FD189856E
S1130990823050F08981823038F0BE016F5F7F4F22
S11309A0CE01099602D201C08FEF6896E2E00C9462
S11309B01410ACE0B0E0EFEDF4E00C94F60F6987AE
S11309C07A878B879C87BE016F5F7F4FCE01099624
S11309D07DD18981823091F1823080F1843041F47B
S11309E08A81882331F100E010E020E030E829C05A
S11309F02B813C8137FD22C02F3131058CF78EE1EC
S1130A0090E0821B930B0D811E812F81388504C0D9
S1130A1036952795179507958A95D2F78A81882365
S1130A2081F030952095109501951F4F2F4F3F4F22
S1130A3008C00FEF1FEF2FEF3FE703C000E010E007
S1130A409801B801C9012C96E4E00C941210A8E0B6
S1130A50B0E0EDE2F5E00C94F20F8B019C011A82F8
S1130A60611571058105910519F482E089835DC0E2
S1130A7083E089834EE150E05C834B83C901B80174
S1130A800E94CF0F019797FF39C0EE27FF27E81B7D
S1130A90F90B41E050E060E070E00E2E04C0440F1A
S1130AA0551F661F771F0A94D2F7415051096109F7
S1130AB071094023512362237323C12CD12C760165
S1130AC0C394452B462B472B19F4C12CD12C76010A
S1130AD004C03695279517950795EA95D2F70C2902
S1130AE01D292E293F290D831E832F8338872EE14C
S1130AF030E0281B390B3C832B8317C0009729F463
S1130B000D831E832F83388710C0082E04C0000F66
S1130B10111F221F331F0A94D2F70D831E832F83C4
S1130B203887481B590B5C834B83CE01019604D054
S1130B302896E8E00C940E100F931F93CF93DF9345
S1130B40DC0114964D915D916D917C9117971196EE
S1130B50EC9111978C91823020F460618FEF90E0DA
S1130B60A6C0843009F49EC0823009F495C04115B2
S1130B7051056105710509F492C012962D913C91BD
S1130B80139722388FEF38070CF058C0C2E8DFEF14
S1130B90C21BD30BCA31D1056CF58A019B010C2E03
S1130BA004C036952795179507950A94D2F781E0E6
S1130BB090E0A0E0B0E00C2E04C0880F991FAA1F9B
S1130BC0BB1F0A94D2F70197A109B1098423952385
S1130BD0A623B72341E050E060E070E0892B8A2B24
S1130BE08B2B19F440E050E0BA01402B512B622BBF
S1130BF0732B03C040E050E0BA01DB01CA018F77D8
S1130C009927AA27BB2780349105A105B10539F49A
S1130C1047FF09C0405C5F4F6F4F7F4F04C0415C8A
S1130C205F4F6F4F7F4F81E090E0411551056105A3
S1130C3020E4720748F580E090E026C020383105B2
S1130C408CF5DB01CA018F779927AA27BB2780344B
S1130C509105A105B10539F447FF09C0405C5F4F18
S1130C606F4F7F4F04C0415C5F4F6F4F7F4F77FDE5
S1130C7004C0C90181589F4F07C076956795579561
S1130C804795C90180589F4F97E07695679557958A
S1130C9047959A95D1F70BC080E090E005C080E0BD
S1130CA090E005C08FEF90E040E050E0BA01982F4B
S1130CB09695E0FB97F9362F80FB37F9642F752F53
S1130CC0832FDF91CF911F910F910895CF92DF92DF
S1130CD0EF92DC01FB01CC901196DC9011971296F7
S1130CE08C9112973FE7E32EE8226E2DA60170E067
S1130CF0982F991F9927991F13962C91822F880F4B
S1130D00892B90E027FB222720F92183009729F5DE
S1130D10411551056105710511F482E027C082E88F
S1130D209FEF9383828327E0440F551F661F771F2D
S1130D302A95D1F783E0808309C0440F551F661FAD
S1130D40771F828193810197938382834115510593
S1130D50610580E4780788F320C08F3F910579F41A
S1130D60411551056105710519F484E0808319C0AA
S1130D70E4FE03C081E0808310C010820EC08F5750
S1130D8091099383828383E0808387E0440F551F16
S1130D90661F771F8A95D1F77064448355836683F1
S1130DA07783EF90DF90CF900895CF93FC01DB0120
S1130DB09081923008F452C08C91823008F44EC075
S1130DC0943071F4843039F411962C9130E081819F
S1130DD0281B310948C08181882309F43FC03BC0E6
S1130DE0843029F411968C91811138C034C092302A
S1130DF019F48230B9F735C0823069F3C181119694
S1130E008C911197C8131DC02281338112968D9144
S1130E109C911397821793070CF413C02817390772
S1130E200CF417C0448155816681778114968D91A5
S1130E309D910D90BC91A02D84179507A607B70727
S1130E4018F4C11108C00AC0481759076A077B077C
S1130E5040F4C11103C02FEF3FEF05C021E030E0A3
S1130E6002C020E030E0C901CF910895611102C0B1
S1130E70DD9801C0DD9A882314F4DE9A01C0DE985F
S1130E8086FF02C0DF9A01C0DF9885FF02C0AF9AD7
S1130E9001C0AF9884FF02C0AE9A01C0AE98E7ECDF
S1130EA0F0E03197F1F700C00000DC9AE7ECF0E0E5
S1130EB03197F1F700C00000DC98E7ECF0E03197DF
S1130EC0F1F700C0000083FF02C0DE9A01C0DE9883
S1130ED082FF02C0DF9A01C0DF9881FF02C0AF9A8F
S1130EE001C0AF9880FF02C0AE9A01C0AE9887ECF3
S1130EF090E00197F1F700C00000DC9AE7ECF0E025
S1130F003197F1F700C00000DC9887EC90E001977E
S1130F10F1F700C0000008958FE39CE90197F1F711
S1130F2000C000008AB3806F8ABBDF9884B3806CF2
S1130F3084BBAE988FE39CE90197F1F700C00000F1
S1130F40AE9AAF9A8FE19EE40197F1F700C00000DA
S1130F50AE988FE39FE10197F1F700C00000DC9A9F
S1130F608FE39FE10197F1F700C00000DC988FE365
S1130F709FE10197F1F700C0000060E088E276DFAE
S1130F8060E08CE073DF60E086E070DF60E081E0C9
S1130F906DDF9FEF29EF80E0915020408040E1F722
S1130FA000C00000089561E061CF823061F018F460
S1130FB0813089F405C0833049F0843061F409C07C
S1130FC0862F815808C0862F815405C0862F8D56E0
S1130FD002C0862F8D5260E049CFCF93DF93EC019E
S1130FE0FE012491222351F0FC01849161E03EDF53
S1130FF02196CE01FE0124912111F6CFDF91CF91EC
S113100008958530D9F058F4823091F018F4813085
S113101069F41EC0833071F0843041F40DC0873010
S113102089F070F0883081F0893081F080E3089590
S113103082E3089583E3089584E3089585E308959E
S113104086E3089587E3089588E3089589E308957E
S113105081E308958F929F92AF92BF92CF92DF92D5
S1131060EF92FF92CF930F2EFAE0CF2ED12CE12CEA
S1131070F12CF02DA701960164D749015A01862F5E
S1131080C0DFC82FC501B401A70196015AD7862F26
S1131090B8DF89DF8C2F87DFCF91FF90EF90DF904F
S11310A0CF90BF90AF909F908F9008956F927F9252
S11310B08F929F92AF92BF92CF92DF92EF92FF9264
S11310C00F931F93CF93DF9300D000D0CDB7DEB73B
S11310D019821A821B821C828E010E5F1F4F5E01D1
S11310E025E0A20EB11C0F2EFAE0CF2ED12CE12C5C
S11310F0F12CF02DA701960124D7622E732E842E95
S1131100952E862F7EDFF80181938F01662D772D32
S1131110882D992DEA15FB0569F78C8144DF8B81B5
S113112042DF8A8140DF0F900F900F900F90DF9184
S1131130CF911F910F91FF90EF90DF90CF90BF90D0
S1131140AF909F908F907F906F90089510BE84E031
S113115083BF12BE11BE1FBC8EBD8BE08DBD8CED56
S11311608CBD17BC16BC1BBC1ABC19BC18BC109295
S113117079001092780015BC14BC13BC10928B003B
S113118010928A00109289001092880010928100B7
S113119010928000109287001092860010928500B1
S11311A010928400109283001092820010926A00C0
S11311B01ABE19BE85E087BF10927D001AB810923E
S11311C09A0080E888B910BC80EC87B986E886B9B3
S11311D01DB8109274008FE39CE90197F1F700C0E9
S11311E00000089584B3807C84BB85B38F6385BB82
S11311F0D198D99A0895989B1EC0999B1EC09A9B1A
S11312001EC09B9B1EC09C9B1EC09D9B1EC0C99B59
S11312101EC00EC082ED80930A0190930B010895C5
S11312208F5F80930A018431C1F490930B01089578
S113123010920A01089591E00BC092E009C093E076
S113124007C094E005C095E003C096E001C097E0B4
S113125080910A018B3F20F3DDCF089580910B012B
S113126010920B01089580930B01089581EF82BBC6
S113127081BB8FE39CE90197F1F700C00000E2E62F
S1131280F0E0108280EF809361008FE39CE9019786
S1131290F1F700C000008081806280838FE39CE9C5
S11312A00197F1F700C00000808180618083808114
S11312B08F77808380818F7B80830895909AEFE37A
S11312C0FFE13197F1F700C000009598F5E3FA9536
S11312D0F1F700002FE030E0AC01022E02C0569579
S11312E047950A94E2F740FF02C0979A01C0979885
S11312F0E7ECF0E03197F1F700C000009698E7ECD6
S1131300F0E03197F1F700C00000969A21503109BE
S113131018F725E32A95F1F70000959A45E34A95D5
S1131320F1F700008AE68A95F1F700C09498E5E3A6
S1131330EA95F1F700008FE090E09B01082E02C0CF
S1131340369527950A94E2F720FF02C0979A01C0C8
S11313509798E7ECF0E03197F1F700C00000969819
S1131360E7ECF0E03197F1F700C00000969A01979E
S113137020F725E32A95F1F70000949A45E34A956E
S1131380F1F7000090988BE08DBD8CED8CBD089535
S1131390909A0895E5E6F0E0208120612083823070
S11313A0910550F0EFE9FFE03197F1F700C000003C
S11313B0019781309105B1F7E5E6F0E080818F7EF9
S11313C080830895882319F0803141F404C0D898AB
S11313D0D998DA980895D89AD99ADA9A089588E02B
S11313E081BDFFCF1F920F920FB60F9211240BB63F
S11313F00F922F933F934F935F936F937F938F93AA
S11314009F93AF93BF93EF93FF93F5DEFF91EF911B
S1131410BF91AF919F918F917F916F915F914F9108
S11314203F912F910F900BBE0F900FBE0F901F9006
S113143018951F920F920FB60F9211240BB60F92AC
S11314402F933F934F935F936F937F938F939F93C8
S1131450AF93BF93EF93FF938BE08DBD8CED8CBD69
S113146080910801909109018230910530F0019733
S1131470909309018093080101C08ADFFF91EF91E5
S1131480BF91AF919F918F917F916F915F914F9198
S11314903F912F910F900BBE0F900FBE0F901F9096
S11314A0189554DE9FDEA4E6B0E08C9180618C93A5
S11314B0E5E6F0E080818F7B80838C9181608C9362
S11314C080818E7F80838C9182608C9380818D7FDC
S11314D080838C9184608C9380818B7F8083C6DE33
S11314E080E170DF19DD24D5789408E010E020E075
S11314F030E041E050E061E080E04CD18AEA03D57D
S11315008FEF01D580E05EDF68E070E080E090E07E
S1131510D5DE81E090E090930901809308016894FE
S1131520EE24E3F8F12C612C712CCC24C394D12C3F
S1131530D1E0C0E00F2EF7EE8F2EF3E09F2EF02DBA
S1131540A12CB12C0F2EF9EF5F2EF02D0F2EF9E008
S11315504F2EF02DBFD4882321F0C3D4853509F450
S11315603EDF7CDEC130B1F120F0C23009F0E5C0CD
S1131570D8C08230B1F0833029F1813009F0DDC068
S1131580DF5F85E090E006DFDA3020F082E390E070
S113159001DFD42D87019301A6016D2F80E0FAD0DD
S11315A0CCC0D15085E090E0F5DEDA3020F082E363
S11315B090E0F0DED1E087019301A6016D2F80E079
S11315C0E9D0BBC087019301A6016D2F81E0E2D071
S11315D0C1E0B3C0843009F44CC038F4823039F12E
S11315E068F4813009F0A9C00CC0863009F46DC0DC
S11315F008F455C0873009F0A0C07DC09A9BC2C0D2
S1131600A6C02FEF621A720A85E090E0C3DE88EE6E
S1131610681683E0780620F082E390E0BBDE3401B4
S113162087019301A6016D2F81E0B4D086C091E0BB
S1131630691A710885E090E0ADDEE8EE6E16E3E02D
S11316407E0620F082E390E0A5DE35018701930158
S1131650A6016D2F81E09ED070C0EFE7FEE33197C5
S1131660F1F700C00000815009F47CC09A9BF5CFCB
S11316706EC0FFEFEF1AFF0A85E090E08BDE28EEE4
S1131680E21623E0F20620F082E390E083DE7401A8
S113169087019301A6016D2F81E07CD04EC081E0CB
S11316A0E81AF10885E090E075DE98EEE91693E01B
S11316B0F90620F082E390E06DDE75018701930165
S11316C0A6016D2F81E066D038C0EFEFCE1ADE0A96
S11316D085E090E05FDEF8EECF16F3E0DF0620F061
S11316E082E390E057DE640187019301A6016D2F28
S11316F081E050D022C021E0C21AD10885E090E0F8
S113170049DE88EEC81683E0D80620F082E390E034
S113171041DE650187019301A6016D2F81E03AD076
S11317200CC0833051F485E090E034DE87019301EE
S1131730A6016D2F81E02ED0C1E09FEFE0E7F2E03B
S11317409150E040F040E1F700C0000003CF85E095
S113175090E020DE87019301A6016D2F80E01AD06E
S1131760C0E0EBCF82E390E015DE87019301A60190
S11317706D2F82E00FD080E076DDB701C3019EDDDE
S1131780C2E0DBCF8FE79EE30197F1F700C00000D2
S1131790852D6CCFBF92CF92DF92EF92FF920F9381
S11317A01F93CF93DF93EA017901813009F471C16A
S11317B020F0823009F02EC39CC2653009F4B0C019
S11317C078F4623009F43DC020F4613009F022C39A
S11317D013C0633009F45AC0643009F01BC37BC0E2
S11317E0673009F4E7C008F4C0C0683009F407C1E1
S11317F0693009F00FC328C161E081E0D6DB8EE5D2
S113180091E0EBDB61E082E0D0DB89E491E0E5DBB1
S113181061E083E0CADB84E391E0DFDB61E081E047
S1131820C4DB82E692E0D9DB64E181E0BEDB80E6E2
S113183092E0D3DB61E084E0B8DB8CE890E0CDDBC0
S1131840E9C261E081E0B1DB89E491E0C6DB61E0FB
S113185082E0ABDB84E391E0C0DB61E083E0A5DB05
S11318608FE191E0BADB61E081E09FDB82E692E008
S1131870B4DB64E181E099DB80E692E0AEDB61E019
S113188084E093DB8CE890E0A8DBC4C261E081E0F3
S11318908CDB84E391E0A1DB61E082E086DB8FE115
S11318A091E09BDB61E083E080DB8AE091E095DB03
S11318B061E081E07ADB82E692E08FDB64E181E043
S11318C074DB80E692E089DB61E084E06EDB8CE827
S11318D090E083DB9FC261E081E067DB8FE191E010
S11318E07CDB61E082E061DB8AE091E076DB61E051
S11318F083E05BDB85EF90E070DB61E081E055DB4A
S113190082E692E06ADB64E181E04FDB80E692E00C
S113191064DB61E084E049DB8CE890E05EDB7AC262
S113192061E081E042DB8AE091E057DB61E082E044
S11319303CDB85EF90E051DB61E083E036DB80EE59
S113194090E04BDB61E081E030DB82E692E045DB56
S113195064E181E02ADB80E692E03FDB61E084E041
S113196024DB8CE890E039DB55C261E081E01DDBCB
S113197085EF90E032DB61E082E017DB80EE90E0FF
S11319802CDB61E083E011DB8BEC90E026DB61E093
S113199081E00BDB82E692E020DB64E181E005DBA1
S11319A080E692E01ADB61E084E0FFDA8CE890E004
S11319B014DB30C261E081E0F8DA80EE90E00DDB08
S11319C061E082E0F2DA8BEC90E007DB61E083E037
S11319D0ECDA86EB90E001DB61E081E0E6DA82E6B6
S11319E092E0FBDA64E181E0E0DA80E692E0F5DAA5
S11319F061E084E0DADA8CE890E0EFDA0BC261E0CF
S1131A0081E0D3DA80EE90E0E8DA61E082E0CDDADA
S1131A108BEC90E0E2DA61E083E0C7DA86EB90E0F9
S1131A20DCDA61E082E0C1DA82E692E0D6DA64E1EF
S1131A3082E0BBDA80E692E0D0DA61E084E0B5DAF5
S1131A408CE890E0CADAE6C161E081E0AEDA80EECB
S1131A5090E0C3DA61E082E0A8DA8BEC90E0BDDAD2
S1131A6061E083E0A2DA86EB90E0B7DA61E083E03C
S1131A709CDA82E692E0B1DA64E183E096DA80E609
S1131A8092E0ABDA61E084E090DA8CE890E0A5DAE9
S1131A90C1C16530A1F168F46230E1F020F4613035
S1131AA009F04FC010C06330E1F0643009F049C060
S1131AB01FC0673091F150F1683009F435C06930C6
S1131AC009F03FC038C061E081E06FDA8EE591E053
S1131AD084DA37C061E081E068DA89E491E07DDA94
S1131AE030C061E081E061DA84E391E076DA29C014
S1131AF061E081E05ADA8FE191E06FDA22C061E0BF
S1131B0081E053DA8AE091E068DA1BC061E081E0A9
S1131B104CDA85EF90E061DA14C061E081E045DAE7
S1131B2080EE90E05ADA0DC061E081E03EDA8BECA1
S1131B3090E053DA06C061E081E037DA86EB90E0AA
S1131B404CDA61E084E031DA81EA90E046DA61E07F
S1131B5081E02BDA82E692E040DA64E181E025DA82
S1131B6080E692E03ADA61E082E01FDA86E592E00C
S1131B7034DAB70180E090E00E94270520E030E0ED
S1131B8040E250E40E942B03B62EC72ED82EE92E35
S1131B9020E030E048EC52E40E940D040E9452011F
S1131BA059DA8EE592E019DA6B2D7C2D8D2D9E2D60
S1131BB00E9452019B013695279536952795ABE7F0
S1131BC0B4E1E1D1969587950F2EF4E6FF2EF02D22
S1131BD0F89EB001F99E700D112480E090E00E94FF
S1131BE027059B01AC016B2D7C2D8D2D9E2D0E9414
S1131BF0FF0220E030E040E251E40E942B030E9407
S1131C00520154DA8EE392E0E8D961E083E0CDD961
S1131C108EE492E0E2D99801220F331F220F331F82
S1131C20220F331F200F311FADECBCECACD19695C5
S1131C308795929582958F7089279F708927BC011B
S1131C4080E090E00E9427050E9452012FDA85E38C
S1131C5092E0C3D961E084E0A8D985E492E0BDD9DB
S1131C60BE0180E090E00E94270520E030E040E2E1
S1131C7050E40E942B03062F172FD82FC92F20E0E2
S1131C8030E048EC52E40E940D040E945201E2D973
S1131C908EE592E0A2D9602F712F8D2F9C2F0E9488
S1131CA052019B013695279536952795ABE7B4E10C
S1131CB06AD196958795F89EB001F99E700D11240E
S1131CC080E090E00E9427059B01AC01602F712FFA
S1131CD08D2F9C2F0E94FF0220E030E040E251E46F
S1131CE00E942B030E945201B5D980E392E075D97A
S1131CF091C06530A1F168F46230E1F020F4613004
S1131D0009F04FC010C06330E1F0643009F049C0FD
S1131D101FC0673091F150F1683009F435C0693063
S1131D2009F03FC038C061E081E03FD98BE192E027
S1131D3054D937C061E081E038D986E092E04DD9CA
S1131D4030C061E081E031D981EF91E046D929C00A
S1131D5061E081E02AD98CED91E03FD922C061E0B5
S1131D6081E023D987EC91E038D91BC061E081E0A0
S1131D701CD982EB91E031D914C061E081E015D91E
S1131D808DE991E02AD90DC061E081E00ED988E89F
S1131D9091E023D906C061E081E007D983E791E0AF
S1131DA01CD961E084E001D981EA90E016D961E0B0
S1131DB081E0FBD882E692E010D964E181E0F5D8B5
S1131DC080E692E00AD961E082E0EFD886E592E00D
S1131DD004D9B70180E090E069D98EE392E0FDD8A0
S1131DE061E083E0E2D88EE492E0F7D8B80180E0C5
S1131DF090E05CD985E392E0F0D861E084E0D5D846
S1131E0085E492E0EAD8BE0180E090E04FD980E317
S1131E1092E0E3D8DF91CF911F910F91FF90EF9063
S1131E20DF90CF90BF9008951F920F920FB60F923C
S1131E3011240BB60F922F938F939F93EF93FF93DD
S1131E40E09116018E2F8F5F837020919C009091FA
S1131E501701891731F0F0E0EF5EFE4F2083809385
S1131E601601FF91EF919F918F912F910F900BBECF
S1131E700F900FBE0F901F9018951F920F920FB6E0
S1131E800F9211240BB60F928F939F93EF93FF93AE
S1131E9080910C0190911501891761F0E82FF0E011
S1131EA0E35FFE4F908190939C008F5F83708093DB
S1131EB00C0105C0EAE9F0E080818F7D8083FF9109
S1131EC0EF919F918F910F900BBE0F900FBE0F90CB
S1131ED01F9018958091160190911701891B8370AA
S1131EE008959091170180911601981751F0E92FE8
S1131EF0F0E0EF5EFE4F80819F5F93709093170137
S1131F00089580E00895E09115019E2F9F5F9370DE
S1131F1020910C01921759F0F0E0E35FFE4F8083AB
S1131F2090931501EAE9F0E080818062808308954E
S1131F3087E6809399001092980088E980939A002C
S1131F400895A1E21A2EAA1BBB1BFD010DC0AA1FF6
S1131F50BB1FEE1FFF1FA217B307E407F50720F00E
S1131F60A21BB30BE40BF50B661F771F881F991F89
S1131F701A9469F760957095809590959B01AC01D2
S1131F80BD01CF010895A29FB001B39FC001A39FDB
S1131F9001D0B29F700D811D1124911D089506D0AA
S1131FA084FF0895CB0102D0805F0895AA27992366
S1131FB029F4A85F982B11F480E10895903118F466
S1131FC0AD5F9295A395990FE8F78A2F9927089505
S1131FD02F923F924F925F926F927F928F929F9235
S1131FE0AF92BF92CF92DF92EF92FF920F931F9323
S1131FF0CF93DF93CDB7DEB7CA1BDB0B0FB6F894D4
S1132000DEBF0FBECDBF09942A88398848885F8413
S11320106E847D848C849B84AA84B984C884DF8084
S1132020EE80FD800C811B81AA81B981CE0FD11D68
S11320300FB6F894DEBF0FBECDBFED010895F8943E
S1052040FFCFCC
S10B2042000000000000000092
S9030000FC
