S01800004143434553534F52595F4445564943452E7372656351
S11300000EC01FC01DC01CC01BC025C019C018C015
S113001017C016C015C014C013C012C011C01124DB
S11300201FBECFEDCDBF10E0A0E6B0E0ECE6F1E0FE
S113003002C005900D92A236B107D9F716D094C02C
S1130040DFCF1F920F920FB60F9211240F900FBEA5
S11300500F901F9018951F920F920FB60F921124B4
S11300600F900FBE0F901F90189580E886BD16BCA8
S113007097E198BB98E297BB1ABC13BE12BE19BC99
S113008018BC17BC10BE1CBC1FBC1EBC1BBC1DBCBA
S113009090E49BBF42E045BF9ABF19BE1DB888B922
S11300A013B814BA16B88FE19EE40197F1F700C0B3
S11300B0000060E070E0A0E1E1E0F0E0B4991FC06E
S11300C0C39902C0C39A01C0C39880916000909103
S11300D06100892B99F3B499F1CFCB01CFE8D1E03A
S11300E02197F1F700C00000019640916000509103
S11300F061008417950710F7B49BF0CFDFCFB29B54
S11301001AC0DCCFD2E0DA95F1F700C0B199FACF8A
S113011056B3252F217030E0822B932B880F991F23
S1130120B19906C052E05A95F1F700C0B19BFACFDD
S1130130415019F405C04A2FCB01B199E3CFE8CF60
S1130140009729F4F0936100E093600004C0909359
S1130150610080936000B299B1CF82E08A95F1F793
S10F016000C0B29BFACFAACFF894FFCFE6
S105016C3075E8
S9030000FC
