:1000000031C100004EC100004CC100004AC10000D7
:1000100048C1000046C1000044C1000042C10000C8
:1000200040C100003EC100003CC100003AC10000D8
:1000300038C1000036C100000C94810A32C10000B2
:100040000C945A0A2EC100002CC100002AC10000E5
:1000500028C1000026C1000024C1000022C1000008
:1000600020C100001EC100001CC100001AC1000018
:1000700018C1000016C100000C94410F0C946A0FC7
:1000800010C100000EC100000CC10000555020201E
:10009000202020444F574E20202053454C454354A8
:1000A0000020202020202020202020202020202070
:1000B0002020202020002020202050524F46494C54
:1000C00045202020203920202020002020202050E2
:1000D000524F46494C452020202038202020200027
:1000E0002020202050524F46494C452020202037C8
:1000F00020202020002020202050524F46494C45EF
:100100002020202036202020200020202020505297
:100110004F46494C4520202020352020202000201B
:1001200020202050524F46494C452020202034208A
:10013000202020002020202050524F46494C4520AE
:100140002020203320202020002020202050524F2B
:1001500046494C452020202032202020200020200D
:10016000202050524F46494C45202020203120204D
:100170002020002020574F524B202050524F4649FC
:100180004C452020392020002020574F524B202062
:1001900050524F46494C45202038202000202057FF
:1001A0004F524B202050524F46494C45202037207B
:1001B00020002020574F524B202050524F46494C90
:1001C000452020362020002020574F524B20205021
:1001D000524F46494C452020352020002020574FC3
:1001E000524B202050524F46494C4520203420206D
:1001F000002020574F524B202050524F46494C452B
:100200002020332020002020574F524B20205052D6
:100210004F46494C452020322020002020574F5285
:100220004B202050524F46494C4520203120200081
:10023000286D6D2900286465672F6D6D2900286D74
:100240006D2F6D29004C454E474C48203D005350C2
:1002500045454432200053504545443120002C0090
:100260003C003E0011241FBECFEFD0E1DEBFCDBF6A
:1002700021E0A8E0B1E001C01D92A631B207E1F78C
:1002800011E0A0E0B1E0ECE9F0E200E00BBF02C059
:1002900007900D92A830B107D9F70E94910A0C94EB
:1002A0004C10AECECF92DF92EF92FF920F931F933E
:1002B0006B017C0120E030E040E05FE44ED387FD3D
:1002C0000CC020E030E040E05FE4C701B60197D108
:1002D00070D38B019C01305805C0C701B60169D3AA
:1002E0008B019C01B801C9011F910F91FF90EF9004
:1002F000DF90CF900895A4E0B0E0E1E8F1E00C9445
:1003000017107C016A01FC018081823008F44AC127
:10031000FB019081923008F442C1843079F494302A
:1003200009F040C1F7019181FB018181981709F41F
:1003300039C1A0E0EA2EA1E0FA2E34C1943009F4CC
:100340002EC1923091F4823009F02CC188E0F7017F
:10035000DA0101900D928A95E1F7FB018181F701A5
:1003600091818923FA0181831CC1823009F417C16C
:10037000F70182819381FB01A281B381F70104819E
:10038000158126813781FB0184809580A680B78006
:10039000FC01EA1BFB0BAF01F7FF04C04427552704
:1003A0004E1B5F0B403251050CF074C01E161F0629
:1003B000B4F524013501042E04C076946794579453
:1003C00047940A94D2F749825A826B827C82412CEC
:1003D000512C3201439404C0440C551C661C771CFC
:1003E0004A95D2F741E0441A510861087108482043
:1003F00059206A207B20812C912C5401839445281C
:100400004628472819F4812C912C540149805A80A0
:100410006B807C8084289528A628B72846C0EF2BBF
:1004200009F443C0840F951F28013901042E04C02C
:1004300076946794579447940A94D2F749825A82E3
:100440006B827C82412C512C3201439404C0440CB9
:10045000551C661C771C4A95D2F741E0441A510896
:1004600061087108402251226222732201E010E0EB
:1004700020E030E045284628472819F400E010E045
:10048000980149805A806B807C800429152926298F
:1004900037290BC0A817B90724F4812C912C5401DB
:1004A00004C0CD0100E010E09801F7014181FB019B
:1004B0005181451709F446C0442349F02401350110
:1004C000401A510A620A730A9301820104C0081992
:1004D00019092A093B0937FD05C0F60111829383EA
:1004E00082830CC041E0F60141839383828330957F
:1004F0002095109501951F4F2F4F3F4F0483158373
:10050000268337830EC0880F991FAA1FBB1FF601D1
:1005100084839583A683B783828193810197938394
:100520008283F60184819581A681B781AC01BD01EA
:1005300041505109610971094F3F5F4F6F4F7F4330
:1005400010F30CC0F601418393838283080D191DBB
:100550002A1D3B1D048315832683378383E0F60120
:100560008083448155816681778177FF1AC0DB01E2
:10057000CA0181709927AA27BB2776956795579559
:100580004795842B952BA62BB72B84839583A68325
:10059000B7838281938101969383828302C07B011A
:1005A00001C07601C7012496E0E10C943310A0E26B
:1005B000B0E0EDEDF2E00C9425106D8F7E8F8F8F03
:1005C00098A3298F3A8F4B8F5C8FBE016F5E7F4F50
:1005D000CE014D967BD3BE01675F7F4FCE0149961A
:1005E00075D3AE014F5F5F4FBE01675F7F4FCE0196
:1005F000419681DEA1D2A096E2E00C944110A0E2E7
:10060000B0E0E5E0F3E00C9425106D8F7E8F8F8FC6
:1006100098A3298F3A8F4B8F5C8FBE016F5E7F4FFF
:10062000CE014D9653D3BE01675F7F4FCE014996F1
:100630004DD38A8591E089278A87AE014F5F5F4F4E
:10064000BE01675F7F4FCE01419655DE75D2A09601
:10065000E2E00C944110A0E2B0E0E1E3F3E00C949E
:1006600017106D8F7E8F8F8F98A3298F3A8F4B8FA6
:100670005C8FBE016F5E7F4FCE014D9627D3BE01CA
:10068000675F7F4FCE01499621D39989923008F454
:1006900012C08985823008F41AC0943021F4823067
:1006A00009F4B4C008C0843021F4923009F4AEC01B
:1006B0000EC0923051F481E02A899A85291301C035
:1006C00080E08A8BCE014196A3C0823051F481E054
:1006D0002A899A85291301C080E08A87CE0109966C
:1006E00097C08D889E88AF88B88C0D851E852F8514
:1006F0003889E0E2F0E080E090E0DC01C12CD12C10
:10070000760140E050E0BA0180FE18C0400F511F52
:10071000621F731F8C0D9D1DAE1DBF1D412C512CE2
:1007200032014394401751076207730718F0412CB8
:10073000512C3201840D951DA61DB71DCC0CDD1C5E
:10074000EE1CFF1C37FF02C06894C0F8000F111F99
:10075000221F331FB694A794979487943197A1F6DC
:100760002B893C89EB85FC852E0F3F1F2E5F3F4F69
:100770003C832B8321E0EA893A85E31301C020E022
:100780002A83EB81FC810CC080FF05C076956795BC
:10079000579547957068B695A79597958795319623
:1007A000B7FDF2CF9F010CC0880F991FAA1FBB1F76
:1007B00077FD8160440F551F661F771F2150310957
:1007C0000097A105E0E4BE0778F32B833C838C01FE
:1007D0009D010F77112722273327003411052105AA
:1007E000310559F487FD09C0452B462B472B29F0CD
:1007F000805C9F4FAF4FBF4F80788D839E83AF83C8
:10080000B88783E08983CE01019602C080E091E041
:1008100093D1A096E0E10C943310A8E1B0E0E3E1BD
:10082000F4E00C941F106D8B7E8B8F8B988F298B2F
:100830003A8B4B8B5C8BBE01675F7F4FCE01459639
:1008400045D2BE016F5F7F4FCE0141963FD2998561
:10085000923008F475C08981823008F474C02A850A
:100860003A8123272A87943011F0923019F4981393
:1008700067C06CC0843039F41D861E861F86188AB6
:100880001C861B8604C0823029F484E08987CE014F
:1008900009965EC08B859C852B813C81821B930BC6
:1008A0009C878B874D855E856F857889CD80DE80BE
:1008B000EF80F8844C155D056E057F0538F4440F14
:1008C000551F661F771F01979C878B87EFE1F0E02C
:1008D00000E010E020E030E480E090E0DC014C1526
:1008E0005D056E057F0540F0802B912BA22BB32B6D
:1008F0004C195D096E097F0936952795179507955F
:10090000440F551F661F771F319749F78C019D01D2
:100910000F771127222733270034110521053105D0
:1009200059F487FD09C0452B462B472B29F0805CE5
:100930009F4FAF4FBF4F80788D879E87AF87B88B13
:10094000CE01099605C0CE01019602C080E091E07B
:10095000F3D06896E8E00C943B10A8E1B0E0E3EB3C
:10096000F4E00C9425106D8B7E8B8F8B988F298BE8
:100970003A8B4B8B5C8BBE01675F7F4FCE014596F8
:10098000A5D1BE016F5F7F4FCE0141969FD1898572
:10099000823050F08981823038F0BE016F5F7F4F26
:1009A000CE01099602D201C08FEF6896E2E00C9466
:1009B0004110ACE0B0E0EFEDF4E00C942310698757
:1009C0007A878B879C87BE016F5F7F4FCE01099628
:1009D0007DD18981823091F1823080F1843041F47F
:1009E0008A81882331F100E010E020E030E829C05E
:1009F0002B813C8137FD22C02F3131058CF78EE1F0
:100A000090E0821B930B0D811E812F81388504C0DD
:100A100036952795179507958A95D2F78A81882369
:100A200081F030952095109501951F4F2F4F3F4F26
:100A300008C00FEF1FEF2FEF3FE703C000E010E00B
:100A40009801B801C9012C96E4E00C943F10A8E08D
:100A5000B0E0EDE2F5E00C941F108B019C011A82CE
:100A6000611571058105910519F482E089835DC0E6
:100A700083E089834EE150E05C834B83C901B80178
:100A80000E94FC0F019797FF39C0EE27FF27E81B54
:100A9000F90B41E050E060E070E00E2E04C0440F1E
:100AA000551F661F771F0A94D2F7415051096109FB
:100AB00071094023512362237323C12CD12C760169
:100AC000C394452B462B472B19F4C12CD12C76010E
:100AD00004C03695279517950795EA95D2F70C2906
:100AE0001D292E293F290D831E832F8338872EE150
:100AF00030E0281B390B3C832B8317C0009729F467
:100B00000D831E832F83388710C0082E04C0000F6A
:100B1000111F221F331F0A94D2F70D831E832F83C8
:100B20003887481B590B5C834B83CE01019604D058
:100B30002896E8E00C943B100F931F93CF93DF931C
:100B4000DC0114964D915D916D917C9117971196F2
:100B5000EC9111978C91823020F460618FEF90E0DE
:100B6000A6C0843009F49EC0823009F495C04115B6
:100B700051056105710509F492C012962D913C91C1
:100B8000139722388FEF38070CF058C0C2E8DFEF18
:100B9000C21BD30BCA31D1056CF58A019B010C2E07
:100BA00004C036952795179507950A94D2F781E0EA
:100BB00090E0A0E0B0E00C2E04C0880F991FAA1F9F
:100BC000BB1F0A94D2F70197A109B1098423952389
:100BD000A623B72341E050E060E070E0892B8A2B28
:100BE0008B2B19F440E050E0BA01402B512B622BC3
:100BF000732B03C040E050E0BA01DB01CA018F77DC
:100C00009927AA27BB2780349105A105B10539F49E
:100C100047FF09C0405C5F4F6F4F7F4F04C0415C8E
:100C20005F4F6F4F7F4F81E090E0411551056105A7
:100C300020E4720748F580E090E026C020383105B6
:100C40008CF5DB01CA018F779927AA27BB2780344F
:100C50009105A105B10539F447FF09C0405C5F4F1C
:100C60006F4F7F4F04C0415C5F4F6F4F7F4F77FDE9
:100C700004C0C90181589F4F07C076956795579565
:100C80004795C90180589F4F97E07695679557958E
:100C900047959A95D1F70BC080E090E005C080E0C1
:100CA00090E005C08FEF90E040E050E0BA01982F4F
:100CB0009695E0FB97F9362F80FB37F9642F752F57
:100CC000832FDF91CF911F910F910895CF92DF92E3
:100CD000EF92DC01FB01CC901196DC9011971296FB
:100CE0008C9112973FE7E32EE8226E2DA60170E06B
:100CF000982F991F9927991F13962C91822F880F4F
:100D0000892B90E027FB222720F92183009729F5E2
:100D1000411551056105710511F482E027C082E893
:100D20009FEF9383828327E0440F551F661F771F31
:100D30002A95D1F783E0808309C0440F551F661FB1
:100D4000771F828193810197938382834115510597
:100D5000610580E4780788F320C08F3F910579F41E
:100D6000411551056105710519F484E0808319C0AE
:100D7000E4FE03C081E0808310C010820EC08F5754
:100D800091099383828383E0808387E0440F551F1A
:100D9000661F771F8A95D1F77064448355836683F5
:100DA0007783EF90DF90CF900895CF93FC01DB0124
:100DB0009081923008F452C08C91823008F44EC079
:100DC000943071F4843039F411962C9130E08181A3
:100DD000281B310948C08181882309F43FC03BC0EA
:100DE000843029F411968C91811138C034C092302E
:100DF00019F48230B9F735C0823069F3C181119698
:100E00008C911197C8131DC02281338112968D9148
:100E10009C911397821793070CF413C02817390776
:100E20000CF417C0448155816681778114968D91A9
:100E30009D910D90BC91A02D84179507A607B7072B
:100E400018F4C11108C00AC0481759076A077B0780
:100E500040F4C11103C02FEF3FEF05C021E030E0A7
:100E600002C020E030E0C901CF910895611102C0B5
:100E7000DD9801C0DD9A882314F4DE9A01C0DE9863
:100E800086FF02C0DF9A01C0DF9885FF02C0AF9ADB
:100E900001C0AF9884FF02C0AE9A01C0AE98E7ECE3
:100EA000F0E03197F1F700C00000DC9AE7ECF0E0E9
:100EB0003197F1F700C00000DC98E7ECF0E03197E3
:100EC000F1F700C0000083FF02C0DE9A01C0DE9887
:100ED00082FF02C0DF9A01C0DF9881FF02C0AF9A93
:100EE00001C0AF9880FF02C0AE9A01C0AE9887ECF7
:100EF00090E00197F1F700C00000DC9AE7ECF0E029
:100F00003197F1F700C00000DC9887EC90E0019782
:100F1000F1F700C0000008958FE39CE90197F1F715
:100F200000C000008AB3806F8ABBDF9884B3806CF6
:100F300084BBAE988FE39CE90197F1F700C00000F5
:100F4000AE9AAF9A8FE19EE40197F1F700C00000DE
:100F5000AE988FE39FE10197F1F700C00000DC9AA3
:100F60008FE39FE10197F1F700C00000DC988FE369
:100F70009FE10197F1F700C0000060E088E276DFB2
:100F800060E08CE073DF60E086E070DF60E081E0CD
:100F90006DDF9FEF29EF80E0915020408040E1F726
:100FA00000C00000089561E061CF823061F018F464
:100FB000813089F405C0833049F0843061F409C080
:100FC000862F815808C0862F815405C0862F8D56E4
:100FD00002C0862F8D5260E049CFCF93DF93EC01A2
:100FE000FE012491222351F0FC01849161E03EDF57
:100FF0002196CE01FE0124912111F6CFDF91CF91F0
:1010000008958530D9F058F4823091F018F4813089
:1010100069F41EC0833071F0843041F40DC0873014
:1010200089F070F0883081F0893081F080E3089594
:1010300082E3089583E3089584E3089585E30895A2
:1010400086E3089587E3089588E3089589E3089582
:1010500081E308958F929F92AF92BF92CF92DF92D9
:10106000EF92FF92CF930F2EFAE0CF2ED12CE12CEE
:10107000F12CF02DA701960191D749015A01862F35
:10108000C0DFC82FC501B401A701960187D7862FFD
:10109000B8DF89DF8C2F87DFCF91FF90EF90DF9053
:1010A000CF90BF90AF909F908F9008956F927F9256
:1010B0008F929F92AF92BF92CF92DF92EF92FF9268
:1010C0000F931F93CF93DF9300D000D0CDB7DEB73F
:1010D00019821A821B821C828E010E5F1F4F5E01D5
:1010E00025E0A20EB11C0F2EFAE0CF2ED12CE12C60
:1010F000F12CF02DA701960151D7622E732E842E6C
:10110000952E862F7EDFF80181938F01662D772D36
:10111000882D992DEA15FB0569F78C8144DF8B81B9
:1011200042DF8A8140DF0F900F900F900F90DF9188
:10113000CF911F910F91FF90EF90DF90CF90BF90D4
:10114000AF909F908F907F906F90089580EF83B9BC
:101150008FEF82B98FE39CE90197F1F700C000009F
:10116000199A8FE39CE90197F1F700C000001B9AE0
:1011700010BE84E083BF12BE11BE1FBC8EBD8BE0CB
:101180008DBD8CED8CBD17BC16BC1BBC1ABC19BC2C
:1011900018BC109279001092780015BC14BC13BCD6
:1011A00010928B0010928A00109289001092880091
:1011B0001092810010928000109287001092860099
:1011C0001092850010928400109283001092820089
:1011D00010926A001ABE19BE85E087BF10927D008A
:1011E0001AB810929A0080E888B910BC80EC87B9D0
:1011F00086E886B91DB810927400089584B3807C87
:1012000084BB85B38F6385BBD198D99A0895989B89
:101210001EC0999B1EC09A9B1EC09B9B1EC09C9B80
:101220001EC09D9B1EC0C99B1EC00EC082ED809338
:1012300008019093090108958F5F8093080184311C
:10124000C1F490930901089510920801089591E066
:101250000BC092E009C093E007C094E005C095E0A0
:1012600003C096E001C097E0809108018B3F20F316
:10127000DDCF0895809109011092090108958093AE
:10128000090108954F925F926F927F92AF92BF9241
:10129000CF92DF92EF92FF920F931F93CF93DF9342
:1012A0005C018B01EA01BC0180E090E0D0DB6B01C6
:1012B0007C01B80180E090E0CADB2B013C01BE015B
:1012C00080E090E0C4DB9B01AC01C301B201A5DA70
:1012D0009B01AC01C701B601BED90E9452011D9805
:1012E00025E32A95F1F700008FE090E09501082EA4
:1012F00002C0369527950A94E2F720FF02C01F9A94
:1013000001C01F98E7ECF0E03197F1F700C0000052
:101310001E98E7ECF0E03197F1F700C000001E9A4C
:10132000019720F725E32A95F1F700001D9A85E340
:101330008A95F1F70000EAE6EA95F1F700C01D98FA
:10134000F5E3FA95F1F700008FE090E09801082EA0
:1013500002C0369527950A94E2F720FF02C01F9A33
:1013600001C01F98E7ECF0E03197F1F700C00000F2
:101370001E98E7ECF0E03197F1F700C000001E9AEC
:10138000019720F725E32A95F1F7000085E38A9578
:10139000F1F70000EAE6EA95F1F700C01C98F5E3E2
:1013A000FA95F1F700008FE090E09B01082E02C053
:1013B000369527950A94E2F720FF02C01F9A01C0D4
:1013C0001F98E7ECF0E03197F1F700C000001E989D
:1013D000E7ECF0E03197F1F700C000001E9A0197AA
:1013E00020F725E32A95F1F700001C9A85E38A95FA
:1013F000F1F70000EAE6EA95F1F700C01C98F5E382
:10140000FA95F1F700008FE090E09E01082E02C0EF
:10141000369527950A94E2F720FF02C01F9A01C073
:101420001F98E7ECF0E03197F1F700C000001E983C
:10143000E7ECF0E03197F1F700C000001E9A019749
:1014400020F725E32A95F1F700001D9A1C9A85E301
:101450008A95F1F70000DF91CF911F910F91FF90D6
:10146000EF90DF90CF90BF90AF907F906F905F90A4
:101470004F900895969A8230910550F0EFE9FFE081
:101480003197F1F700C00000019781309105B1F765
:1014900096980895882319F0803141F404C0D898B3
:1014A000DA98DB980895D89ADA9ADB9A089588E05A
:1014B00081BDFFCF1F920F920FB60F9211240BB672
:1014C0000F922F933F934F935F936F937F938F93DD
:1014D0009F93AF93BF93EF93FF9399DEFF91EF91AB
:1014E000BF91AF919F918F917F916F915F914F913C
:1014F0003F912F910F900BBE0F900FBE0F901F903A
:1015000018951F920F920FB60F9211248F938BE0B4
:101510008DBD8CED8CBD8F910F900FBE0F901F90E5
:10152000189514DE6BDE8E9A9698D09AD898D29A37
:10153000DA98D39ADB9880E1ADDFEEDC26D578949B
:1015400005E010E024E030E04AE050E061E080E0B7
:101550004ED18AEA05D58FEF03D580E09BDF45E0C9
:1015600050E064E070E08AE090E08CDE0F2EF5E061
:10157000CF2ED12CF02D6894EE24E2F8F12C0F2E12
:10158000FAE06F2E712CF02DD1E0C0E00F2EF7EEB7
:101590008F2EF3E09F2EF02DA12CB12C0F2EF9EF02
:1015A0005F2EF02D0F2EF9E04F2EF02DC0D48823A2
:1015B00021F0C4D4853509F47ADF5CDEC130B1F1A5
:1015C00020F0C23009F0E5C0D8C08230B1F08330DD
:1015D00029F1813009F0DDC0DF5F85E090E04ADF6E
:1015E000DA3020F082E390E045DFD42D86019701C8
:1015F000A3016D2F80E0FBD0CCC0D15085E090E0FE
:1016000039DFDA3020F082E390E034DFD1E0860188
:101610009701A3016D2F80E0EAD0BBC0860197013E
:10162000A3016D2F81E0E3D0C1E0B3C0843009F4A1
:101630004CC038F4823039F168F4813009F0A9C027
:101640000CC0863009F46DC008F455C0873009F02D
:10165000A0C07DC09A9BC3C0A6C02FEFE21AF20AB9
:1016600085E090E007DF88EEE81683E0F80620F0DA
:1016700082E390E0FFDE740186019701A3016D2FE4
:1016800081E0B5D086C091E0E91AF10885E090E0EC
:10169000F1DEE8EEEE16E3E0FE0620F082E390E0F5
:1016A000E9DE750186019701A3016D2F81E09FD0CE
:1016B00070C0EFE7FEE33197F1F700C00000815002
:1016C00009F47CC09A9BF5CF6EC0FFEFCF1ADF0AFA
:1016D00085E090E0CFDE28EEC21623E0D20620F0AF
:1016E00082E390E0C7DE640186019701A3016D2FBC
:1016F00081E07DD04EC081E0C81AD10885E090E03D
:10170000B9DE98EEC91693E0D90620F082E390E0A6
:10171000B1DE650186019701A3016D2F81E067D0DD
:1017200038C0EFEF6E1A7E0A85E090E0A3DEF8EE97
:101730006F16F3E07F0620F082E390E09BDE340139
:1017400086019701A3016D2F81E051D022C021E0D5
:10175000621A710885E090E08DDE88EE681683E0FD
:10176000780620F082E390E085DE3501860197015E
:10177000A3016D2F81E03BD00CC0833051F485E094
:1017800090E078DE86019701A3016D2F81E02FD0D4
:10179000C1E09FEFE0E7F2E09150E040F040E1F778
:1017A00000C0000003CF85E090E064DE8601970171
:1017B000A3016D2F80E01BD0C0E0EBCF82E390E06F
:1017C00059DE86019701A3016D2F82E010D080E0E1
:1017D00056DDA601B701C30155DDC2E0DACF8FE7C0
:1017E0009EE30197F1F700C00000852D6BCFBF92FB
:1017F000CF92DF92EF92FF920F931F93CF93DF93DD
:10180000EA017901813009F471C120F0823009F0D8
:101810002EC39CC2653009F4B0C078F4623009F47C
:101820003DC020F4613009F022C313C0633009F4D5
:101830005AC0643009F01BC37BC0673009F4E7C0AD
:1018400008F4C0C0683009F407C1693009F00FC35B
:1018500028C161E081E0A9DB8EE591E0BEDB61E0BB
:1018600082E0A3DB89E491E0B8DB61E083E09DDB0B
:1018700084E391E0B2DB61E081E097DB82E692E015
:10188000ACDB64E181E091DB80E692E0A6DB61E025
:1018900084E08BDB8CE890E0A0DBE9C261E081E0D2
:1018A00084DB89E491E099DB61E082E07EDB84E324
:1018B00091E093DB61E083E078DB8FE191E08DDB09
:1018C00061E081E072DB82E692E087DB64E181E047
:1018D0006CDB80E692E081DB61E084E066DB8CE833
:1018E00090E07BDBC4C261E081E05FDB84E391E0F8
:1018F00074DB61E082E059DB8FE191E06EDB61E057
:1019000083E053DB8AE091E068DB61E081E04DDB5E
:1019100082E692E062DB64E181E047DB80E692E010
:101920005CDB61E084E041DB8CE890E056DB9FC249
:1019300061E081E03ADB8FE191E04FDB61E082E042
:1019400034DB8AE091E049DB61E083E02EDB85EF68
:1019500090E043DB61E081E028DB82E692E03DDB62
:1019600064E181E022DB80E692E037DB61E084E045
:101970001CDB8CE890E031DB7AC261E081E015DBB2
:101980008AE091E02ADB61E082E00FDB85EF90E006
:1019900024DB61E083E009DB80EE90E01EDB61E0A8
:1019A00081E003DB82E692E018DB64E181E0FDDAAE
:1019B00080E692E012DB61E084E0F7DA8CE890E008
:1019C0000CDB55C261E081E0F0DA85EF90E005DBE9
:1019D00061E082E0EADA80EE90E0FFDA61E083E045
:1019E000E4DA8BEC90E0F9DA61E081E0DEDA82E6BD
:1019F00092E0F3DA64E181E0D8DA80E692E0EDDAB1
:101A000061E084E0D2DA8CE890E0E7DA30C261E0AD
:101A100081E0CBDA80EE90E0E0DA61E082E0C5DAE6
:101A20008BEC90E0DADA61E083E0BFDA86EB90E0FD
:101A3000D4DA61E081E0B9DA82E692E0CEDA64E1FC
:101A400081E0B3DA80E692E0C8DA61E084E0ADDA02
:101A50008CE890E0C2DA0BC261E081E0A6DA80EEA9
:101A600090E0BBDA61E082E0A0DA8BEC90E0B5DADE
:101A700061E083E09ADA86EB90E0AFDA61E082E041
:101A800094DA82E692E0A9DA64E182E08EDA80E616
:101A900092E0A3DA61E084E088DA8CE890E09DDAF5
:101AA000E6C161E081E081DA80EE90E096DA61E003
:101AB00082E07BDA8BEC90E090DA61E083E075DA2B
:101AC00086EB90E08ADA61E083E06FDA82E692E00A
:101AD00084DA64E183E069DA80E692E07EDA61E04C
:101AE00084E063DA8CE890E078DAC1C16530A1F176
:101AF00068F46230E1F020F4613009F04FC010C0AA
:101B00006330E1F0643009F049C01FC0673091F1E3
:101B100050F1683009F435C0693009F03FC038C071
:101B200061E081E042DA8EE591E057DA37C061E0AA
:101B300081E03BDA89E491E050DA30C061E081E095
:101B400034DA84E391E049DA29C061E081E02DDAFA
:101B50008FE191E042DA22C061E081E026DA8AE09A
:101B600091E03BDA1BC061E081E01FDA85EF90E095
:101B700034DA14C061E081E018DA80EE90E02DDA0A
:101B80000DC061E081E011DA8BEC90E026DA06C04E
:101B900061E081E00ADA86EB90E01FDA61E084E040
:101BA00004DA81EA90E019DA61E081E0FED982E6A8
:101BB00092E013DA64E181E0F8D980E692E00DDA90
:101BC00061E082E0F2D986E592E007DAB70180E0D1
:101BD00090E00E94270520E030E040E250E40E94BF
:101BE0002B03B62EC72ED82EE92E20E030E048EC8D
:101BF00052E40E940D040E9452012CDA8EE592E01C
:101C0000ECD96B2D7C2D8D2D9E2D0E9452019B01B8
:101C10003695279536952795ABE7B4E1E1D19695B2
:101C200087950F2EF4E6FF2EF02DF89EB001F99E59
:101C3000700D112480E090E00E9427059B01AC010B
:101C40006B2D7C2D8D2D9E2D0E94FF0220E030E01B
:101C500040E251E40E942B030E94520127DA8EE3F6
:101C600092E0BBD961E083E0A0D98EE492E0B5D9DF
:101C70009801220F331F220F331F220F331F200F13
:101C8000311FADECBCECACD19695879592958295C1
:101C90008F7089279F708927BC0180E090E00E94A7
:101CA00027050E94520102DA85E392E096D961E0AD
:101CB00084E07BD985E492E090D9BE0180E090E099
:101CC0000E94270520E030E040E250E40E942B0310
:101CD000062F172FD82FC92F20E030E048EC52E410
:101CE0000E940D040E945201B5D98EE592E075D98B
:101CF000602F712F8D2F9C2F0E9452019B013695D2
:101D0000279536952795ABE7B4E16AD196958795E7
:101D1000F89EB001F99E700D112480E090E00E94C1
:101D200027059B01AC01602F712F8D2F9C2F0E94E6
:101D3000FF0220E030E040E251E40E942B030E94C9
:101D4000520188D980E392E048D991C06530A1F171
:101D500068F46230E1F020F4613009F04FC010C047
:101D60006330E1F0643009F049C01FC0673091F181
:101D700050F1683009F435C0693009F03FC038C00F
:101D800061E081E012D98BE192E027D937C061E0B0
:101D900081E00BD986E092E020D930C061E081E09B
:101DA00004D981EF91E019D929C061E081E0FDD823
:101DB0008CED91E012D922C061E081E0F6D887EC89
:101DC00091E00BD91BC061E081E0EFD882EB91E09C
:101DD00004D914C061E081E0E8D88DE991E0FDD834
:101DE0000DC061E081E0E1D888E891E0F6D806C056
:101DF00061E081E0DAD883E791E0EFD861E084E048
:101E0000D4D881EA90E0E9D861E081E0CED882E6DA
:101E100092E0E3D864E181E0C8D880E692E0DDD8C2
:101E200061E082E0C2D886E592E0D7D8B70180E0D1
:101E300090E03CD98EE392E0D0D861E083E0B5D861
:101E40008EE492E0CAD8B80180E090E02FD985E313
:101E500092E0C3D861E084E0A8D885E492E0BDD8E0
:101E6000BE0180E090E022D980E392E0B6D8DF9115
:101E7000CF911F910F91FF90EF90DF90CF90BF9087
:101E800008951F920F920FB60F9211240BB60F9266
:101E90002F938F939F93EF93FF93E09114018E2FD5
:101EA0008F5F837020919C0090911501891731F00C
:101EB000F0E0E15FFE4F208380931401FF91EF91EA
:101EC0009F918F912F910F900BBE0F900FBE0F908F
:101ED0001F9018951F920F920FB60F9211240BB6F8
:101EE0000F928F939F93EF93FF9380910A019091AC
:101EF0001301891761F0E82FF0E0E55FFE4F908154
:101F000090939C008F5F837080930A0105C0EAE97B
:101F1000F0E080818F7D8083FF91EF919F918F9181
:101F20000F900BBE0F900FBE0F901F9018958091D1
:101F3000140190911501891B8370089590911501EA
:101F400080911401981751F0E92FF0E0E15FFE4F06
:101F500080819F5F937090931501089580E00895AC
:101F6000E09113019E2F9F5F937020910A019217B9
:101F700059F0F0E0E55FFE4F808390931301EAE9AA
:101F8000F0E0808180628083089583E380939900EC
:101F90001092980088E980939A000895A1E21A2E81
:101FA000AA1BBB1BFD010DC0AA1FBB1FEE1FFF1FFD
:101FB000A217B307E407F50720F0A21BB30BE40B4D
:101FC000F50B661F771F881F991F1A9469F7609594
:101FD0007095809590959B01AC01BD01CF0108954E
:101FE000A29FB001B39FC001A39F01D0B29F700D0B
:101FF000811D1124911D089506D084FF0895CB0101
:1020000002D0805F0895AA27992329F4A85F982B0E
:1020100011F480E10895903118F4AD5F9295A39585
:10202000990FE8F78A2F992708952F923F924F92A0
:102030005F926F927F928F929F92AF92BF92CF9258
:10204000DF92EF92FF920F931F93CF93DF93CDB761
:10205000DEB7CA1BDB0B0FB6F894DEBF0FBECDBFD9
:1020600009942A88398848885F846E847D848C84AA
:102070009B84AA84B984C884DF80EE80FD800C81B3
:102080001B81AA81B981CE0FD11D0FB6F894DEBF96
:0C2090000FBECDBFED010895F894FFCF06
:08209C0000000000000000003C
:00000001FF
